:100000000C9410030C9457030C9457030C9457034F
:100010000C9457030C9457030C9457030C945703F8
:100020000C9457030C9457030C9436220C940A2317
:100030000C94EB190C9457030C9457030C9457032E
:100040000C9457030C9457030C9457030C945703C8
:100050000C9457030C94421A0C9457030C945703B6
:100060000C9457030C9457030C9457030C945703A8
:100070000C9457030C9457030C9457030C94570398
:100080000C9457030C9457030C9457030C94570388
:100090000C9457030C9457030C9457030C94570378
:1000A0000C9457030C9457030C94570314001A0034
:1000B0000800150017001C0018000C0012000400B6
:1000C0001600070009000A000B000D000E001300C7
:1000D0001D621B000600190005001100100036000B
:1000E0000F002961E3008B642C4201518A712A00C0
:1000F000287437724C003B003C003D0046007600FF
:100100004A0052004D003E003F00400041002804DC
:10011000520450004F002A00426243004400450050
:10012000B700B60051004B0028000100010001009B
:100130002B0001000100010001004E001E021F0201
:100140002002210222022302240225022602E100CB
:100150000351330234022F0087002D0033002A00A0
:10016000E10000000000000089002E00380030008F
:10017000340001000100010001002B00010001001A
:10018000010032001E001F00200021002200230079
:10019000240025002600E0000000330234022D0078
:1001A0008702210022002A00000000000000000059
:1001B000000038001E001F002300010001000100A4
:1001C0000100270027003700010020000100010086
:1001D0000100010001000100010001000100010017
:1001E0000100010001000100010001000100010007
:1001F00001000100010001000100010001000100F7
:1002000001000100010001000100010001000100E6
:1004000001000100010001000100010000000000E6
:10041000000000002A2B280000000000000000005F
:100420000000000000000029000000002C1E342005
:10043000212224342627252E362D3738271E1F202B
:100440002122232425263333362E37381F04050670
:100450000708090A0B0C0D0E0F10111213141516B4
:100460001718191A1B1C1D2F3130232D35040506B2
:100470000708090A0B0C0D0E0F1011121314151694
:100480001718191A1B1C1D2F3130354C00000000A5
:10049000000000000000000000000000000000005C
:1004A0007E0F00D4FFFFFFC7000000780E036B0033
:1004B0006100770061006900690000000E037900A7
:1004C0006F006800650077006900000004030904FC
:1004D00009025B00030100A03209040000010301CE
:1004E00001000921110100012240000705810308D4
:1004F000000A0904010002030000000921110100A3
:1005000001222200070582032000010705030320C2
:10051000000109040200010300000009211101008B
:10052000012281000705840320000A120110010046
:10053000000008EDFE00000100010200010660FF5E
:100540000961A1010962150026FF00952075088147
:10055000020963150026FF00952075089102C00569
:10056000010902A10185020901A10005091901295A
:100570000515002501950575018102950175038119
:10058000010501093009311581257F950275088122
:100590000609381581257F950175088106050C0A25
:1005A00038021581257F950175088106C0C00501B7
:1005B0000980A101850319012AB700150126B7009A
:1005C000950175108100C0050C0901A10185041970
:1005D000012AA002150126A002950175108100C014
:1005E00005010906A101050719E029E71500250104
:1005F00095087501810295017508810105071900AB
:1006000029FF150026FF00950675088100050819C9
:10061000012905950575019102950175039101C0A8
:1006200011241FBECFEFDAE0DEBFCDBF04B603FE5C
:1006300027C08091670290916802A0916902B091F1
:100640006A028730904BA740B04BD1F410926702FA
:10065000109268021092690210926A0214BE84B766
:10066000877F84BF0FB6F894A89580916000886159
:1006700080936000109260000FBEE0E0F8E30995FF
:1006800011E0A0E0B1E0E8EDFAE402C005900D92BF
:10069000A83AB107D9F722E0A8EAB1E001C01D925B
:1006A000A736B207E1F70E94FC1E0C9433250C9488
:1006B000000081E0089581E008950C945B030895A3
:1006C0000C945F031F93CF93DF9300D000D00F9261
:1006D000CDB7DEB749835A836B833091C4018981DA
:1006E0009A8131111DC06623B9F02223A9F00E941E
:1006F0005B17182F682F89819A810E9407176981DB
:100700007A81812F0F900F900F900F900F90DF91B3
:10071000CF911F910C944D0B0E943317182FEFCFE0
:100720000E945B1769817A81EDCFFC01262F408101
:1007300051816281738184810C946203CF93DF9332
:10074000EC0160E00E949503BE01DF91CF910C9413
:100750006003FF920F931F93CF93DF93E82FF0E096
:10076000E45FFB4FF490C82FC695C695C695D0E0C0
:10077000FE01E456FB4F0491877010E0082E02C082
:10078000159507950A94E2F701701127C457DB4FBE
:10079000FE01C491D0E002C0D595C7958A95E2F7D5
:1007A000C170DD270115110519F081EE0E947F0F40
:1007B000209719F086EE0E947F0F8F2D0E94671000
:1007C000CD2B19F086EE0E941110012B41F081EE25
:1007D000DF91CF911F910F91FF900C941110DF9139
:1007E000CF911F910F91FF900895EF92FF920F9379
:1007F0001F93CF93DF93EC01162F0AE088818823A3
:1008000009F454C0813009F04EC08981813099F4D7
:100810007E0122E0E20EF11C8A810E946710E7014E
:100820002196812F815050F3EFE9FFE03197F1F7E6
:1008300000C00000F7CF823041F47E0182E0E80E74
:10084000F11C8A810E947F0FEACF833041F47E0140
:10085000E2E0EE0EF11C8A810E941110E0CF84309C
:1008600011F02196DDCF2A81229690E080E0AE0142
:100870004F5F5F4F2053330B2A30310548F001970B
:1008800078F2EFE9FFE03197F1F700C00000F7CF11
:10089000089FB001099F700D1124C901860F971F91
:1008A0002981EA01E4CF0E94A903BACFDF91CF9159
:1008B0001F910F91FF90EF90089560E00C94F50365
:1008C0008F929F92AF92BF92CF92DF92EF92FF9260
:1008D0000F931F936B017C0181E090E0A0E0B0E0FA
:1008E0004C015D0104C0880C991CAA1CBB1C4A95D4
:1008F000D2F7B501A4014C015D0104C0880C991C1C
:10090000AA1CBB1C2A95D2F7482959296A297B2998
:1009100004C0880F991FAA1FBB1F0A95D2F78A012E
:100920009B010C211D212E213F21041715072607AD
:10093000370789F48C299D29AE29BF29BC01CD0137
:100940001F910F91FF90EF90DF90CF90BF90AF90ED
:100950009F908F90089580959095A095B0958C214B
:100960009D21AE21BF21EACF0F93382F262F609112
:100970001602709117028091180290911902042FAB
:10098000432F0E9460040F910C9445160E948C1A0C
:100990000E949818811102C00E943C190C9408070B
:1009A0000C940B0708950E94E9120E94D2042FEFC5
:1009B00084E39CE0215080409040E1F700C00000BB
:1009C0000C94661A0F931F93CF93DF93EC0161E0B1
:1009D0000E9495038C01BE010E948409882359F16D
:1009E000BE01C8010E945D03882329F1BE01C80130
:1009F0000E94820C8823F9F0BE01C8010E94D40C29
:100A00008823C9F0BE01C8010E94F70D882399F020
:100A10008A81882339F001158CE5180751F00F3DC4
:100A20001C4579F0CE01DF91CF911F910F910C946D
:100A300059030E94D30480E0DF91CF911F910F9161
:100A400008950E943C19F7CF08950C94240581E085
:100A500008950C942705CF93C82F0E9425058C2F4D
:100A6000CF910C942905CF93DF930E944D0B0E94E8
:100A70002D06EC01811521E5920708F042C0811591
:100A800030E5930708F09DC0883E910530F5803E23
:100A9000910508F092C0883A910588F4853A91054D
:100AA00008F084C08130910509F487C0009709F4EB
:100AB00084C0049708F081C0D0E0C0E07EC08F3BC6
:100AC0009105D0F7C85AD0E0CC0FDD1FCB5EDE4FCA
:100AD0000990D881C02DD46470C08115904250F423
:100AE000C11581E0D80708F068C0C03FD10520F3E8
:100AF000D06563C0C11590E4D907F0F2DF70D06A09
:100B00005CC0811525E5920700F5811534E5930752
:100B100008F08BC0811543E5940708F073C0C11538
:100B200082E5D80708F469C0CE018370992721E0D7
:100B300030E002C0220F331F8A95E2F7C695C695B2
:100B400080E2C89FE001112454C0C11599E5D9077E
:100B5000A8F4C11528E5D20708F06CC0C11536E528
:100B6000D30708F0A9CF8C2F0E94C406C82FD0E06D
:100B7000DC2FCC27CC27DF71D0621FC0C1154AE51E
:100B8000D40708F45CC0CE0190568115904208F05D
:100B900093CF8D2F8F710E94C40690E0982F8827E5
:100BA00088279F719C012C2BE901E6CFC55AD0E024
:100BB000CD5BDE4FC881D0E0D064CE01DF91CF9114
:100BC0000895E4E096958795EA95E1F783702C2FD8
:100BD00026952695237040E2249F90011124382BFE
:100BE0008C2F8370C1E0D0E002C0CC0FDD1F8A954E
:100BF000E2F7C22BD32BDC68E0CFDC2FCC27C16F10
:100C0000D06ADBCF8370992721E030E002C0220F49
:100C1000331F8A95E2F7C695C69590E2C99FE00119
:100C20001124C22BD32BDA68C8CFD82FCC27C46F9E
:100C3000D06AC3CFDC2FCC27C06FD06ABECF8C2F39
:100C40008F700E94C40634E0D695C7953A95E1F7B7
:100C5000CF709C2FEC01D069B0CF82389105B1F1F3
:100C6000B0F48133910509F475C048F489329105D7
:100C700009F469C08A32910509F473C00895853377
:100C8000910509F459C08933910501F10895833E16
:100C90009105A9F138F4803E9105F9F0823E910565
:100CA00049F10895863E9105A9F1873E9105C9F164
:100CB000843E910519F52091590221FF1FC08091B2
:100CC000580284FD14C087EE90E0089520915802E8
:100CD0002370A1F080EE90E008952091580220FD4D
:100CE00047C03091590230FF09C024FF44C090E052
:100CF00080E004C02091580222FDF7CF0895209192
:100D0000580222FD3BC03091590230FDE3CF24FF51
:100D1000F5CFEDCF2091580223FFF0CF24FDE7CF90
:100D2000D2CF2091580223FD2CC03091590231FFBF
:100D3000EECF84EE90E008952091580225FFDECF9B
:100D400089E290E008952091580225FFD7CF85E3EE
:100D500090E008952091580226FFD0CF8AE290E0DB
:100D600008952091580226FFC9CF81E390E00895AD
:100D700089E390E0089583EE90E0089582EE90E09C
:100D8000089586EE90E008959091580292FF06C073
:100D9000282F28712830F9F4877F846093FF06C0DC
:100DA000282F28712831F1F4877E8461209159021F
:100DB00020FF06C0382F38713830D9F4877F816022
:100DC00021FF06C0282F28712831D1F4877E816148
:100DD00094FD877E0895282F24712430F9F68B7FA7
:100DE0008860DCCF282F2471243101F78B7E886145
:100DF000DDCF382F3171313019F78E7F8860E0CF29
:100E0000282F2171213121F78E7E8861E1CF08954D
:100E10000C94070708950C940A07E82FF0E0EE0FF2
:100E2000FF1FE45BFD4F808191810895089580EA62
:100E30008A95F1F70895F894E82FE295EF70F0E0C5
:100E400031A1282F2F7081E090E001C0880F2A95F2
:100E5000EAF7982F9095932391A392A1892B82A3CF
:100E600078940895CF93DF9387EF0E941B0786EF56
:100E70000E941B0785EF0E941B0784EF0E941B073F
:100E8000C6E4D1E089910E941B0781E0CF34D807E6
:100E9000C9F7109245021092440210924D0210922E
:100EA0004C02109247021092460210924F0210928A
:100EB0004E02109249021092480210925102109272
:100EC000500210924B0210924A021092530210925A
:100ED000520284E00E94EE07DF91CF910C94C60489
:100EE000AF92BF92DF92EF92FF920F931F93CF9337
:100EF000DF93CFE4D1E004E412E0D12CEE24E394BC
:100F0000F12C8991F894E82FE295EF70F0E021A19F
:100F10008F70A70102C0440F551F8A95E2F7CA01DE
:100F2000922F982B91A392A18095892382A37894E4
:100F30000E941707E6E4F1E030E020E0B12CA12C9C
:100F40004191A42FA295AF70B0E090968C9190E063
:100F50004F7002C0959587954A95E2F780FD39C09C
:100F6000C701022E02C0880F991F0A94E2F7A82A2F
:100F7000B92A2F5F3F4F2930310511F7FE01319714
:100F800080810E941B07F80180819181A816B90613
:100F900019F1B182A08281E0D82A0E5F1F4FF1E0E3
:100FA000C335DF0709F0ADCF2D2D44E06CE472E0CE
:100FB00084E492E00E94EF070E94D0048D2DDF911F
:100FC000CF911F910F91FF90EF90DF90BF90AF9066
:100FD000089590E080E0CBCF80E0DECF0895FF92CF
:100FE0000F931F93CF93DF93F82E092F162FD72F30
:100FF000C42F222349F081E08093AA010E941B1A8A
:101000009093A9018093A8018091AA018823A1F05F
:101010008091A8019091A9010E94331A069760F06F
:10102000EF2DF02FA12FBD2F90E080E0D0E08C17A6
:101030009D0744F01092AA01DF91CF911F910F916B
:10104000FF900895219131912D933D930196EFCF1B
:1010500008950C942808AF92BF92CF92DF92EF923E
:10106000FF920F931F93CF93DF93A5E6B1E023E6A2
:1010700031E08FEAA82E81E0B82E67E671E041E00A
:1010800050E00D91802F82958F7090E0FC01C1A1FE
:101090000F707A01002E01C0EE0C0A94EAF7FE2DC3
:1010A000F095CF23FC01C1A3C2A1CE29C2A3E901BF
:1010B00019919E01E12FE295EF70F0E0F1A01F7011
:1010C0006A01012E01C0CC0C0A94EAF7EC2CE094E2
:1010D000EF20E1A2F2A0FC28F2A2EC0188A190E0AE
:1010E00002C0959587950A95E2F78170E0A1F0E03E
:1010F00002C0F595E7951A95E2F790E0E0FD92E0E1
:10110000892BF50181935F016A177B0709F0B9CF3D
:10111000DF91CF911F910F91FF90EF90DF90CF90D3
:10112000BF90AF9008955F926F927F928F929F923F
:10113000AF92BF92CF92DF92EF92FF920F931F93E5
:10114000CF93DF930FEA11E085E6C82E81E0D82E19
:1011500093E6E92E91E0F92ECDEAD1E02BEA822E3A
:1011600021E0922E512C33E0632E712CD801ED91A9
:101170008D016E2F660F660F6E93F60121916F0140
:10118000822F82958F7090E0FC0180A190E02F70FB
:1011900002C0959587952A95E2F781709927F70106
:1011A00021917F01422F42954F7050E0FA0140A1FA
:1011B00050E02F7002C0559547952A95E2F79A01A5
:1011C0002170332740FF02C022E030E0822BE62F5F
:1011D000E82BEC935E01EF70F0E0ED5AFE4F80815A
:1011E0009881890F8883833044F0D4018C918F5F7C
:1011F0008C9360E0852D0E94290888818E3F44F4FD
:10120000F40180818150808361E0852D0E9429084E
:101210002196FE013197D5018C91082E000C990B77
:10122000B3010E94BC248083BFEF8B1A9B0AE1E0CC
:101230005E1210C0DF91CF911F910F91FF90EF9040
:10124000DF90CF90BF90AF909F908F907F906F90E6
:101250005F9008955524539489CF82E290E00E94D4
:10126000F124813289F483E290E00E94F1248230FB
:1012700059F484E290E00E94F12491E0853209F073
:1012800090E0892F8170089580E0FCCFCF93C82F24
:101290006FEF811161E282E290E00E94FF246FEF24
:1012A000C11162E083E290E00E94FF246FEFC11160
:1012B00065E284E290E0CF910C94FF2480E00E94EC
:1012C00046090C949218089585E290E00E94F1245A
:1012D000682F70E090E080E0089585E290E00C9443
:1012E000FF240E9463090E942D0981110CC060E057
:1012F00070E0CB010E946D090E94C50A0E94AF0BED
:1013000081E00C9446090895CF93FB01C281CC2360
:1013100009F19C0122513F452031310520F58251D0
:101320000E94BF0BC0E08C2FCF91089581E00E94F6
:101330006B1643E062E081E00E94B404F3CF81E0E9
:101340000E948C1643E062E081E00E94B404EBCF7F
:1013500082E0F6CF8031FFE59F0789F381319F4519
:10136000B9F3C1E0E0CF8031EFE59E07F9F28131BA
:101370009F45C9F682E0DBCF2FEFFC012083089563
:10138000EF92FF920F931F93CF93DF93EC01062F01
:10139000E881E150E33108F05EC0F0E0EB5CFA4D2B
:1013A0000C94D024198289E08A83602FCE01DF91CA
:1013B000CF911F910F91FF90EF900C94F01D8981B8
:1013C000823069F0833071F08130D9F40E94271A9D
:1013D0000E94D6246A837B838C839D83E6CF0E9400
:1013E0006409F6CF7E0110E0812F0E940D07F701FE
:1013F000928383831F5FF2E0EF0EF11C1430A1F79C
:10140000D4CF602FCE010E94BC09CFCF898182301A
:10141000C1F76A817B818C819D810E94D6240E94C4
:101420006D09C3CF4B816A8189810E94970A9827F1
:10143000892798279D838C83B8CF2C813D813227C3
:10144000232732274B816A8189810E94B00AADCF60
:101450000E94C50AAACF8FEF8883A7CF0E945A0B9C
:101460008983A3CF0E945C0B9827892798279A83AA
:1014700089839BCF6B8170E089819A81AE014C5F3B
:101480005F4F9827892798270E945F0B8ECF6B812B
:1014900070E089819A81AE014C5F5F4F9827892760
:1014A00098270E94850B81CF0E94AF0B7ECF0E94B0
:1014B000850AD6CF6B8170E089819A81AE014C5F3D
:1014C0005F4F9827892798270E94FD0A6ECF6B816E
:1014D00070E089819A81AE014C5F5F4F9827892720
:1014E00098270E94230B61CF0E945E095ECF0E9465
:1014F000F01D2FEF81EE94E0215080409040E1F705
:1015000000C000000E94661A50CF8CE0089550E0A1
:10151000440F551F92E1699F400D511D112498E41D
:10152000899F400D511D1124CA01869608950F937D
:101530001F93CF93DF930E94870A8C010E94F124AE
:10154000C82FD0E0DC2FCC27C80101960E94F124DF
:101550009E01282BC901DF91CF911F910F91089512
:101560000F931F93CF93DF93122F032F0E94870AAD
:10157000EC01602F0E94FF24612FCE010196DF91C4
:10158000CF911F910F910C94FF24AF92BF92CF92F5
:10159000DF92EF92FF921F93CF93DF938CEAC82ED6
:1015A00080E0D82ED0E07601C0E014C0F50125918E
:1015B0003491412F6C2F8D2F0E94B00A82E0A80E2B
:1015C000B11C1F5F193091F782E1E80EF11CCF5F6B
:1015D000C43019F0570110E0E9CFDF5F88E4C80E8E
:1015E000D11CDC3001F7DF91CF911F91FF90EF907C
:1015F000DF90CF90BF90AF900895EF92FF920F933E
:101600001F93CF93DF93EC018A017C01E60EF71E56
:10161000CE018696CE15DF0539F4DF91CF911F916B
:101620000F91FF90EF900895C03623E0D20740F469
:101630000E94F124F80180830F5F1F4F2196E8CFAD
:10164000F8011082F9CFCF92DF92EF92FF920F93C1
:101650001F93CF93DF937C016A018C01060F171F44
:10166000EC01CE018696C017D10749F4DF91CF91E6
:101670001F910F91FF90EF90DF90CF900895C036AB
:1016800023E0D20740F4FE01EE19FF09EC0DFD1D29
:1016900060810E94FF242196E4CF462F8C3038F4DD
:1016A000743028F4693018F4672F0C94970A90E08E
:1016B00080E0089580E108958AE790E00895EF9230
:1016C000FF920F931F93CF93DF93EC018A017C016C
:1016D000E60EF71ECE018A579C4FCE15DF0539F472
:1016E000DF91CF911F910F91FF90EF900895CA372E
:1016F000D10540F40E94F124F80180830F5F1F4F51
:101700002196E8CFF8011082F9CFCF92DF92EF92C5
:10171000FF920F931F93CF93DF937C016A018C019B
:10172000060F171FEC01CE018A579C4FC017D10737
:1017300049F4DF91CF911F910F91FF90EF90DF90CF
:10174000CF900895CA37D10540F4FE01EE19FF0984
:10175000EC0DFD1D60810E94FF242196E4CFCF9304
:10176000DF93C6E8D3E060E0CE010E94FF2421961B
:10177000C11584E0D807B9F7DF91CF910895DF92C2
:10178000EF92FF920F931F93CF93DF9300D000D07F
:10179000CDB7DEB7F82E8FE08F1540F08FEF93E0D6
:1017A0000E94F12406E813E08823C1F00F900F9007
:1017B0000F900F90DF91CF911F910F91FF90EF90BD
:1017C000DF900895011584E0180781F3C8010E9495
:1017D000F124811101C0FA940F5F1F4FF110F2CF75
:1017E00019821A821B821C82DD24D39478018FEF28
:1017F000E81AF80AC8010E94F12489831A82882312
:10180000A9F29FEF980F933078F48A83D9820E5F04
:101810001F4FC7010E94F1248B83882339F2CE0128
:1018200001960E945D04E2CF8701F9CF0F931F93C9
:10183000CF93DF93C42FD22FFC0182818823C9F07C
:101840004093B3010E941B1A9093B2018093B1019F
:1018500080E28C0F883008F050C0C77081E001C072
:10186000880FCA95EAF7DF91CF911F910F910C94E1
:101870007A101091B301141335C08091B101909189
:10188000B2010E94331A883C910560F5C0E2CD0F89
:101890001D17B9F080E2810F883040F4177081E0A5
:1018A00001C0880F1A95EAF70E948110C83048F4E9
:1018B00081E09D2F977001C0880F9A95EAF70E94EA
:1018C0007A10802F0E946710C830B8F4D77081E07A
:1018D00001C0880FDA95EAF7DF91CF911F910F9140
:1018E0000C94811080E28C0F883038F4C77081E04E
:1018F00001C0880FCA95EAF7EFCFDF91CF911F9112
:101900000F9108950F939C01CB01243F4CE53407C0
:1019100059F1A8F4293DFCE53F0701F12A3D4CE5CA
:101920003407D1F1283D3C4591F406E221EE41EE29
:1019300068ED7CE50E94160C80E00F910895263F2B
:10194000FCE53F07E9F0B0F0273F3C45F9F0FC012A
:101950008281882339F11092B301EFCF07E225EE9F
:1019600045EE69ED7CE5E6CF06E221EE40EE64EF60
:101970007CE5E0CF07E225EE44EE65EF7CE5DACFCB
:1019800006E221EE42EE66EF7CE5D4CF07E225EEDB
:1019900046EE67EF7CE5CECF08E221E045EE6AED4A
:1019A0007CE5C8CF81E0C9CFCF93DF93EC01FB0189
:1019B0008281882309F419C1C230FCE5DF07C0F138
:1019C000C6319CE5D90730F09E012B5F3C4529309C
:1019D000310570F50E94AB1890935902809358021C
:1019E000C031ECE5DE0709F4CFC008F05BC0C830B9
:1019F0008CE5D80709F4B6C088F5C430ECE5DE07FD
:101A000009F4A8C0C0F4C2308CE5D80709F49CC022
:101A1000809158028260C330DC4509F498C08091FF
:101A20005802909159020E94B9180E94E91280E070
:101A3000DF91CF910895809158028061C630ECE526
:101A4000DE0709F484C0809158028860C730DC4505
:101A500008F47DC080915802806279C0CC308CE55A
:101A6000D80709F489C070F4809158028C60CA309C
:101A7000ECE5DE0709F46BC008F478C080915802E9
:101A80008E7F65C0CE308CE5D80709F479C080918F
:101A900058028B7FCF30DC4508F459C08091580242
:101AA0008F7E55C0CC3FECE5DE0709F457C030F51A
:101AB000C3318CE5D80709F46FC078F4C131ECE587
:101AC000DE0709F465C0C231DC4509F0A8CF0E94E9
:101AD000E912809158028F773AC0C5318CE5D8075A
:101AE00009F462C008F476C0809159028160CB3F4E
:101AF000DC4509F094CF8093590291CFC115FDE5E3
:101B0000DF0709F44DC088F4809159028D7FCE3FE4
:101B10009CE5D90781F3809159028E7FCF3FDC4548
:101B200050F3809159028360E6CFC230FDE5DF07B4
:101B300009F459C008F444C080E0C330DD4509F021
:101B40006ECF0E943E196BCF8091580281608093C6
:101B5000580265CF809158028460F9CF8091590274
:101B60008260C9CF809158028064F1CF0E94E9124F
:101B7000809158028068EBCF809158028D7FE7CF2B
:101B800080915802877FE3CF809158028F7DDFCF0D
:101B9000809158028F7BDBCF80915802837FD7CF13
:101BA000809159028C7FA7CF8091580282FB9927A0
:101BB00090F921E0922790FB82F990FB83F9C7CF3F
:101BC00080915902982F909591708E7F892B90FB70
:101BD00081F991CF0E94E91290915802892F97FBC9
:101BE00087F98058B4CF81E0ACCF81E021CFCF938B
:101BF000DF93EB0186319C4511F50E94F0179A8125
:101C0000992399F08A7A91E009F490E09093B401D5
:101C1000811109C089E20E94CB170E942F1880E031
:101C2000DF91CF91089585E3F6CF8091B4018111C2
:101C300004C089E20E94D217F0CF85E3FBCF81E098
:101C4000EFCF9093BA018093B9010895E091B90163
:101C5000F091BA01309721F00190F081E02D0994C4
:101C600080E00895E091B901F091BA01309721F038
:101C70000280F381E02D09940895E091B901F0917B
:101C8000BA01309739F022E0DC012C930480F58111
:101C9000E02D099408952091B7013091B8012817DB
:101CA000390771F09093B8018093B701E091B901C1
:101CB000F091BA01309721F00680F781E02D099468
:101CC00008952091B5013091B6012817390771F0B8
:101CD0009093B6018093B501E091B901F091BA01FA
:101CE000309721F00084F185E02D0994089585B79F
:101CF000806885BF85B7806885BF08950895089579
:101D00000C947E0E08950C94820E0E94770E0E9411
:101D10007F0E0C94800E81E008950C948B0E089534
:101D200008950E94121A0E9432070E9471090E94AF
:101D3000A01A0E942B080C94830E9F92AF92BF9220
:101D4000CF92DF92EF92FF920F931F93CF93DF9387
:101D5000CDB7DEB72A970FB6F894DEBF0FBECDBF62
:101D60000E948F0E0E94900E0E9470070E948D0E9E
:101D7000882309F472C05CEBA52E51E0B52E10E06B
:101D800000E0902E802F0E940D076C01F501E1907C
:101D9000F1905F01E816F90609F459C080912B0211
:101DA00081FD0E94160797012C253D2580E0EE2439
:101DB000E394F12CA9014E215F21452B09F441C088
:101DC0008E839F82CE20DF2081E0CD2809F480E041
:101DD00088870E941B1A8160782F9A8789874E8195
:101DE0005F8168858A850E94500F000F111FF801DE
:101DF000E454FE4F80819181E826F926F182E08249
:101E00000E9493080E944B1C0E94260E9091BB01D9
:101E10008917A1F10E94260E8093BB012A960FB666
:101E2000F894DEBF0FBECDBFDF91CF911F910F9110
:101E3000FF90EF90DF90CF90BF90AF909F900C9469
:101E40002B058F5FEE0CFF1C893009F0B3CF0F5FBD
:101E50001F4F0430110509F094CF8FEF89838A83D7
:101E60001B820E941B1A8160782F9D838C8349817D
:101E70005A816B818D810E94500FC2CF2A960FB676
:101E8000F894DEBF0FBECDBFDF91CF911F910F91B0
:101E9000FF90EF90DF90CF90BF90AF909F9008950C
:101EA000CF93DF93CDB7DEB72B970FB6F894DEBF95
:101EB0000FBECDBF4F83588769877A878B871E8275
:101EC0001D8285E0FE013796DE01119601900D928C
:101ED0008A95E1F749815A816B817C818D819E8150
:101EE0002B960FB6F894DEBF0FBECDBFDF91CF911A
:101EF0000C945F15FC01808191810C949D17CF9308
:101F0000C82F882309F48BC08238C1F40E94260EA2
:101F100081FD85C089E30E94CB170E942F182FEF07
:101F200081EE94E0215080409040E1F700C0000035
:101F300089E30E94D217CF910C942F188338A1F413
:101F40000E94260E80FD6BC083E50E94CB170E9485
:101F50002F182FEF81EE94E0215080409040E1F760
:101F600000C0000083E5E5CF8438A1F40E94260E6E
:101F700082FD55C087E40E94CB170E942F182FEFD7
:101F800081EE94E0215080409040E1F700C00000D5
:101F900087E4CFCF8CEF8C0F813A90F46C2F809137
:101FA0000001909101010E945519882329F08C2F7E
:101FB0000E94D2170E942F188C2F0E94CB17BBCFE4
:101FC00080E28C0F883048F4C77081E001C0880F30
:101FD000CA95EAF70E94F317AECFEBE5EC0FE330BA
:101FE00040F4F0E0EB56FE4F808190E0CF910C94EE
:101FF0004B0EE8E5EC0FE73150F4F0E0EE0FFF1F79
:10200000E959FE4F80819181CF910C94610EC03FC0
:1020100030F08C2F0E94451BCF910C94301CCF9137
:102020000895882309F452C0823871F40E94260E64
:1020300081FF4CC089E30E94CB170E942F1889E3CF
:102040000E94D2170C942F18833859F40E94260E40
:1020500080FF3CC083E50E94CB170E942F1883E5C8
:10206000EFCF843859F40E94260E82FF2FC087E4F8
:102070000E94CB170E942F1887E4E2CF9CEF980FA5
:10208000913AF0F290E2980F983050F4877091E016
:1020900001C0990F8A95EAF7892F0E94F917D2CFCC
:1020A0009BE5980F933020F490E080E00C944B0E69
:1020B00098E5980F973120F490E080E00C94610E41
:1020C000803F20F00E94AD1B0C94301C0895CF93EC
:1020D000C82F0E947F0FC93349F42FEF87EE93E09A
:1020E000215080409040E1F700C000008C2FCF913C
:1020F0000C941110882321F00E94F3170C942F18D0
:102100000895882321F00E94F9170C942F18089540
:10211000BF92CF92DF92EF92FF920F931F93CF93D4
:10212000DF936C01D62FC72FFC01058102950F703C
:10213000128111110E9410180E94E917E82E8823BD
:1021400091F01123E9F08C2F807F803421F080E220
:102150008D0F8830A8F082E00E947A180E94E9175B
:1021600091E0E82EE926BC2EB2949FE0B922FBE074
:10217000FB15A8F1EB2DF0E0E85BFA4D0C94D024B0
:10218000E12CF1CF0C2F0F70C07F11F00295007F72
:102190001123A9F0002359F080E28D0F883010F050
:1021A000D11109C0802F0E94F3170E942F188D2F84
:1021B0000E947F0F14C0802F0E940318F6CF8D2F2E
:1021C0000E941110002359F080E28D0F883010F02A
:1021D000D1112CC0802F0E94F9170E942F182B2D8F
:1021E0002850330B2430310520F40E94260E0E9423
:1021F0002B05EE2009F48EC10E94E51780FD8AC1EF
:10220000F60112820E94DF170E946B16C6010E941F
:10221000AB120E94DF17DF91CF911F910F91FF90BA
:10222000EF90DF90CF90BF900C948C16802F0E947F
:102230000918D3CF2C2F2F70F22EC07FC03219F087
:10224000F29480EFF822DD2369F0D13049F11123B7
:1022500091F1002351F1F601858180FFA8CF8F70A5
:10226000858323C0112381F0011106C00E94161836
:102270008F290E947A10B3CF0130C1F70E9416183F
:102280008F290E941C18ABCF011106C00E9425188F
:102290008F2D0E948110A3CF013009F4A0CFF6CF7B
:1022A000112329F0063008F09ACF8F2DE2CF0530A8
:1022B00008F095CFEDCF002359F3D93349F4FFEF60
:1022C00027EE33E0F15020403040E1F700C000003D
:1022D0008D2F0E94111083CF8C2F86958695837049
:1022E00069F0813009F07BCF8D2F9C2F93701111F5
:1022F00002C090E080E00E94610E71CF8D2F9C2F74
:102300009370111102C090E080E00E944B0E67CFE5
:102310008D2F112329F00E94451B0E94301C5FCF96
:102320000E94AD1BFACF8C2F837009F041C01111B0
:1023300056CF4D2F429546954770440F440F0D2FB1
:102340000F7010E030E020E0042E04C0000F111FD9
:10235000221F331F0A94D2F760E070E0CB01D4FF54
:102360000FC06FE070E080E090E004C0660F771F60
:10237000881F991F4A95D2F7609570958095909522
:10238000C695C695C370602B712B822B932BC230E0
:1023900049F058F4C13019F00E941D1620CF0E9458
:1023A0000B161DCF0E942F161ACF0E94091617CFA9
:1023B0008695112311F08C2F8170882309F40FCF9B
:1023C0004D2F429546954770440F440F0D2F0F70C7
:1023D00010E030E020E0042E04C0000F111F221F87
:1023E000331F0A94D2F760E070E0CB01D4FF0FC036
:1023F0006FE070E080E090E004C0660F771F881FF8
:10240000991F4A95D2F76095709580959095C695DD
:10241000C695C370602B712B822B932BC23049F071
:1024200058F4C13019F00E94E216D9CE0E94D0169D
:10243000D6CE0E94F416D3CE0E944516D0CECF70D1
:10244000112329F08C2F0E946B168D2F12CF8D2F08
:102450000E9481108C2F0E948C16C1CED23F89F130
:1024600060F4D03FC9F0D13F29F1112309F442C0F3
:1024700001119DCE8C2F8F7121C0D33F39F1D43FF4
:10248000A1F7112369F1CF718C2F0E946B1663E0C5
:102490008C2F0E946518A3CE112341F0053008F05F
:1024A0009ECE8C2F8F710E94AF1699CE063008F009
:1024B00096CEF7CF8C2F8F71112369F20E946B1685
:1024C0008ECE8C2F8F711123C9F3C5CF112329F024
:1024D0008C2F8F710E94561682CE0E9451167FCE8D
:1024E00081E00E947A18023008F479CE82E00E94DE
:1024F0007A1875CE002359F0D93309F0E9CE8FEF61
:1025000097EEE3E081509040E040E1F7DFCE8C2F82
:102510008F71A1CFDF91CF911F910F91FF90EF901D
:10252000DF90CF90BF9008950F931F93CF93DF93C9
:10253000EC01688179818A810E94A7178C010E9431
:1025400006170E940816B801CE01DF91CF911F91A6
:102550000F910C948810CF93DF93EC018B819C81B9
:10256000892B29F08881998189238F3F59F4DF9144
:10257000CF910895CE010E949412CE01DF91CF91A8
:102580000C949E03CE010E94E2048111F3CF0E94BD
:10259000E917882361F38A81882349F382E0DF9178
:1025A000CF910C947A180E9410180E9413180E9460
:1025B0002F180E94571D0E94301C90E080E00E945E
:1025C0004B0E90E080E00C94610E0E94D9170C94A1
:1025D000D3120E9400180C94E512E92FE295EF70D7
:1025E000E250EE3070F4F0E0EC5AFA4D0C94D02446
:1025F000803F19F020F4883E20F481E00895843F64
:10260000E1F380E00895883EC0F3813FD1F7F5CF34
:1026100093FB882780F908950E949D170C94ED1272
:10262000CF93DF9300D000D00F92CDB7DEB70F90DD
:102630000F900F900F900F90DF91CF910895CF934F
:10264000DF9300D000D000D0CDB7DEB726960FB60E
:10265000F894DEBF0FBECDBFDF91CF9108951F93D9
:10266000CF93DF93C091C50116E08091C6018C1312
:1026700004C0DF91CF911F910895D0E01C9FF0011D
:102680001D9FF00D1124E953FE4F4081518162815D
:102690007381848195810E941F132196C770E5CFB5
:1026A0004091F7015091F8016091F9017091FA01A0
:1026B0008091FB019091FC010C941F131F93CF9309
:1026C000DF938091FC01807FA9F48091F901882338
:1026D00089F08091C501C091C6016091F7017091A8
:1026E000F801A091FA01B091FB01D62FD72316E093
:1026F000C81304C0DF91CF911F91089590E0109707
:1027000011F0DF3F19F401968770F2CF189F900106
:10271000199F300D1124F901E953FE4F41814713F0
:10272000F2CF40814613EFCF42814111ECCF43817C
:1027300054814A1B5B0B483C510528F78091FC01F2
:102740008F7080618093FC01F901E453FE4F80811A
:102750008F708061808387EF91E00E94AB12DF91E0
:10276000CF911F910C942F13AF92BF92CF92DF9213
:10277000EF92FF920F931F93CF93DF93CDB7DEB706
:1027800061970FB6F894DEBF0FBECDBF8C0185E018
:10279000F801DE011D9601900D928A95E1F7F8018E
:1027A00040815181E28087EFC82E81E0D82E609170
:1027B000FA017091FB016115710509F461C19091F5
:1027C000F7012091F801892F82238F3F09F458C126
:1027D000A380B480F090F901F501E61BF70BFF2010
:1027E00009F4FCC08091FC01382F307FE83CF105F2
:1027F00008F0B2C0311179C0FE2C251323C0941308
:1028000021C0E1101FC08F7080618093FC010E9485
:102810005013C6010E94AB128091FC01F801858320
:102820008F2D61960FB6F894DEBF0FBECDBFDF913E
:10283000CF911F910F91FF90EF90DF90CF90BF90BD
:10284000AF900895AB2829F0842F85238F3F09F09E
:1028500033C180E0F82FF170DF2E80FF3CC0809103
:10286000C5012091C60136E0821315C04D875E87F1
:102870008D859E850E949D17292F22952F702230CD
:10288000F0F0243018F59F70F1F0F8019581907FF9
:10289000D1F4D12C1EC090E0389FF001399FF00D8B
:1028A0001124E953FE4F6181651306C060816413F2
:1028B00003C062816E110FC001968770D5CF9F70E3
:1028C00011F0882331F3805E883018F3C8010E942C
:1028D000AB12FD2CA5CFEE2009F4A2CF8091FC0114
:1028E00081608093FC01F12C9BCF251306C09413CB
:1028F00004C0F801EE2009F48DC04D875E878D85F8
:102900009E850E940C13882319F1EE2009F1809115
:10291000FC01803270F02091F7013091F801388786
:102920002F831986BB86AA868C87CE0107960E94C4
:10293000AB1286E0F801A7EFB1E001900D928A9505
:10294000E1F70E945E130E945013FF24F39468CFB6
:10295000C8010E94AB12F9CF311113C07A2DB98A88
:10296000A88A6E2D89890E94101387EF91E00E943A
:10297000AB1286E0F60111928A95E9F70E94501396
:10298000B2CF25130FC094130DC0E1100BC0F80196
:102990008583C8010E94AB1286E0F60111928A95E8
:1029A000E9F73ECF4D875E878D859E850E940C138B
:1029B000882371F2EE2061F28091FC01803208F4EC
:1029C000B8CF2091F7013091F8013A8329831B8217
:1029D000BD82AC828E83CE010196A9CFE83CF10581
:1029E00008F041C0FE2CEE2009F4B2CF25132AC016
:1029F000941328C08091FC0180FD1BC0982F907F0C
:102A0000C1F0F8018583903F31F0982F907F905F5F
:102A10008F70892B8583C8010E94AB1286E0F80174
:102A2000A7EFB1E001900D928A95E1F70E94501353
:102A3000F7CE86E0F801A7EFB1E001900D928A95FC
:102A4000E1F7EECE4D875E878D859E850E940C1343
:102A500081116FCF8091FC0181608093FC01C801DE
:102A60000E94AB12DDCE7A2DB98AA88A6E2D898993
:102A70000E94101386E0F60111928A95E9F7D6CFED
:102A8000EE2009F465CF4D875E878D859E850E9477
:102A90000C13F82E882309F45BCF86E0F801A7EF2A
:102AA000B1E001900D928A95E1F787EF91E00E94E5
:102AB0007A0F0E945E13BACF81E08E25CBCE1F9392
:102AC000CF93DF93CDB7DEB72C970FB6F894DEBF68
:102AD0000FBECDBF4F83588769877A878B879C87C6
:102AE000CE0107960E94B413882369F08A859B85DE
:102AF000892B39F04F815885842F85238F3F09F02A
:102B000071C016E05FC086E0FE013796DE011196C7
:102B100001900D928A95E1F78A859B85892B89F32F
:102B20008F81988589238F3F61F32091C60130E022
:102B3000C9010196877099274091C5014817190668
:102B400071F40E94E9121092C6011092C50186E04C
:102B5000E7EFF1E0DF011D928A95E9F7D2CF96E029
:102B6000929FD001939FB00D1124A953BE4FFE0137
:102B7000319601900D929A95E1F78093C6010E94DB
:102B80002F13BFCF819FC001112489539E4F0E94F4
:102B9000B4138823E9F0E091C5011E9FF0011124D0
:102BA000E953FE4F40815181628173818481958117
:102BB0000E941F138091C50190E0019687709927AC
:102BC0008093C5018091C5019091C6018913DACF28
:102BD0002C960FB6F894DEBF0FBECDBFDF91CF911C
:102BE0001F91089569857A858B859C850E941F13A6
:102BF00088CF08950C94F9150E94FA1560931A0273
:102C000070931B0280931C0290931D020C94D312AC
:102C100008950C94FC150F931F9300911A021091C4
:102C20001B0220911C0230911D02602B712B822B04
:102C3000932B1F910F910C94FC150F931F930091F0
:102C40001A0210911B0220911C0230911D02602378
:102C50007123822393231F910F910C94FC150F93E2
:102C60001F9300911A0210911B0220911C023091B7
:102C70001D0260277127822793271F910F910C94C3
:102C8000FC150C94F9150C9441160E9443166093A0
:102C900016027093170280931802909319020C94F5
:102CA000D31260E070E0CB010C9445160F931F9394
:102CB00041E050E060E070E08A019B0104C0000F39
:102CC000111F221F331F8A95D2F7C901B8011F9126
:102CD0000F910C9445160F931F9341E050E060E074
:102CE00070E004C0440F551F661F771F8A95D2F706
:102CF0008091160290911702A0911802B0911902CA
:102D00008A019B01082B192B2A2B3B2BC901B801E7
:102D10001F910F910C9445160F931F9341E050E0C3
:102D200060E070E004C0440F551F661F771F8A954E
:102D3000D2F7CB01BA01609570958095909500917E
:102D40001602109117022091180230911902602387
:102D50007123822393231F910F910C9445160F9397
:102D60001F9341E050E060E070E004C0440F551F45
:102D7000661F771F8A95D2F78091160290911702ED
:102D8000A0911802B09119028A019B010827192706
:102D90002A273B27C901B8011F910F910C944516B2
:102DA0000F931F93009116021091170220911802A1
:102DB00030911902602B712B822B932B1F910F9155
:102DC0000C9445160F931F93009116021091170251
:102DD00020911802309119026023712382239323DA
:102DE0001F910F910C9445160F931F93009116029B
:102DF0001091170220911802309119026027712753
:102E0000822793271F910F910C944516089529E06E
:102E1000929F800D1124982F977041E001C0440FBC
:102E20009A95EAF786958695869595E0899FF001B3
:102E30001124E350FE4F90E080E070E05191DF01FB
:102E400011979B01082E02C0369527950A94E2F748
:102E5000217021952527242325272C930196853041
:102E6000910561F7089529E0929F800D1124982F14
:102E7000977086958695869525E0829FF0011124AE
:102E8000E350FE4F50E040E080E0219130E0092E19
:102E900002C0369527950A94E2F721703327042E55
:102EA00001C0220F0A94EAF7822B4F5F5F4F453033
:102EB000510559F70895BF92CF92DF92EF92FF929A
:102EC0000F931F93CF93DF938C01C0901602D09085
:102ED0001702E0901802F090190280911A02909166
:102EE0001B02A0911C02B0911D02C82AD92AEA2A0D
:102EF000FB2ACFE1D0E0BC2ED701C6010C2E04C0C6
:102F0000B695A795979587950A94D2F780FD0EC040
:102F1000219788F7B12C8B2DDF91CF911F910F91C5
:102F2000FF90EF90DF90CF90BF900895B8018C2F65
:102F30000E943305019761F3EECFCF93DF93EC014D
:102F40000E945B17BE01DF91CF910C9433051F9354
:102F5000CF93DF93EB019091C401992331F0CB0122
:102F6000DF91CF911F910C949D17882379F0CB01AD
:102F70000E945B17182F682FCE010E940717BE0111
:102F8000812FDF91CF911F910C943305CB010E94CB
:102F90003317182FF4CF682F809100019091010111
:102FA0000C948B19682F80910001909101010C9471
:102FB0008D1980910001909101010C948F198091DD
:102FC0001E02859585958595089580911E028770CE
:102FD000089590911E02977081E009F480E00895B1
:102FE00080912A02089590912A02892B80932A02C7
:102FF0000895809590912A02982390932A0208952B
:1030000010922A02089590912902892B8093290217
:10301000089580959091290298239093290208950C
:1030200010922902089510922802089580911F029B
:10303000089508950C94191890911F02981721F083
:1030400080931F020C941A18089580911F02882300
:1030500029F010921F0280E00C941A180895E09154
:103060000001F091010180912A028083E09100012A
:10307000F0910101808190912902892B8083E09158
:103080000001F0910101808190912802892B8083B9
:1030900090911F02992381F0E0910001F0910101CC
:1030A0008081892B808380910001909101010E9491
:1030B000431981110E94251880910001909101010E
:1030C0000C94320E08950C94621898E0899F900138
:1030D0001124622B60931E020E946B1680911E02C7
:1030E0008595859585950C94631810921E0280E055
:1030F0000C94631890911E028095892380931E0280
:10310000282F277071F4282F082E000C330B9217EC
:10311000130639F08595859585950E948C160C943B
:10312000751808956FEF7FEF90E080E00C941D25F7
:1031300090E080E00E94F92421E08C3E9E4F09F04F
:1031400020E0822F089582E090E00C94F12483E047
:1031500090E00C94F124CF9384E090E00E94F1245D
:10316000C82F81E290E00E94F124982F8C2FCF91FC
:103170000895CF93C92F682F84E090E00E94FF2428
:103180006C2F81E290E0CF910C94FF24AB01BC0145
:103190008FE090E00C941125AB01BC0183E190E03D
:1031A0000C94112560E070E0CB010C94CC1860E029
:1031B00070E0CB010E94C6180C94D2186CEE7EEF22
:1031C00090E080E00E941D2560E082E090E00E9497
:1031D000FF2460E083E090E00E94FF2410921A0236
:1031E00010921B0210921C0210921D0260E084E0FB
:1031F00090E00E94FF2460E081E290E00E94FF24C2
:1032000060E085E090E00E94FF2460E086E090E0CE
:103210000E94FF246FEF87E090E00E94FF2440E0CF
:1032200050E0BA0188E090E00E94112560E08DE056
:1032300090E00E94FF2440E050E0BA0188E190E075
:103240000E94112560E087E190E00E94FF2440E0A9
:1032500050E0BA018CE190E00E94112560E080E22C
:1032600090E00E94FF2440E050E0BA0188E190E045
:103270000E9411250C94D7180C94DE18682F8EE04C
:1032800090E00C94FF249C012E5F3F4FAC01485FFF
:103290005F4F80E02417350709F40895F9019191F3
:1032A0009F019923B9F38F5FF5CF662349F0FC01A5
:1032B000329608962191261729F0E817F907D1F7D9
:1032C00080E0089581E008959C01FC0132969FEF13
:1032D00080E04191461751F09F3F19F4411101C020
:1032E000982F8F5F8630A9F79F3F09F40895290F23
:1032F000311D97FD3A95F90162830895FC013296DC
:1033000008962191261303C0DF0111971C92E8173C
:10331000F907B9F708950C9464190C947E19029674
:1033200026E0FC0111922A95E9F708950895089581
:103330000C9497190E94981980915E02843049F18B
:1033400010922C0288E190E020E40FB6F894A89542
:10335000809360000FBE2093600080E00E942B05E8
:103360000E94981983B7817F846083BF83B781608F
:1033700083BF7894889583B78E7F83BF0FB6F89408
:10338000A895809160008861809360001092600031
:103390000FBE08950895CF930E9496190E9470075A
:1033A0000E94CA19C0E08C2F0E940D07892B31F4AE
:1033B000CF5FC430C1F780E0CF91089581E0FCCFAA
:1033C00008950C94E0190E94E9120E94260E0E94B2
:1033D0002B050C94E1191F921FB61F9211248F9395
:1033E0009F93AF93BF9380912C02811113C0809162
:1033F000540290915502A0915602B0915702419605
:10340000A11DB11D8093540290935502A0935602C2
:10341000B0935702BF91AF919F918F911F901FBEA4
:103420001F90189582E084BD93E095BD9AEF97BDFB
:1034300080936E0008952FB7F89480915402909174
:103440005502A0915602B09157022FBF08952FB791
:10345000F8946091540270915502809156029091B7
:1034600057022FBF08959C014FB7F89480915402E2
:1034700090915502A0915602B09157024FBF821B06
:10348000930B089578941F921FB61F9211248F9367
:103490009F93AF93BF938091540290915502A09156
:1034A0005602B09157020196A11DB11D809354029E
:1034B00090935502A0935602B0935702BF91AF91DB
:1034C0009F918F911F901FBE1F90189581E0809350
:1034D000E00080E28093D8001092C9008FE19EE462
:1034E0000197F1F700C0000087E090EBDC018093CA
:1034F000670290936802A0936902B0936A0288E120
:103500009CE00FB6F894A895809360000FBE90934E
:103510006000FFCF0C945E090E9470078FE39CE966
:103520000197F1F700C000000E94700780E00E9440
:103530000D0780FF04C00E948A1A0C94661A089531
:103540000E949818811102C00E943C190E94A31881
:1035500080932B020E94AB189093590280935802DB
:103560000E94A718682F70E090E080E00E94091682
:1035700060911602709117028091180290911902C1
:103580000C9443168091330280FF12C060910701B2
:1035900085E0689FB00111247595679575956795CD
:1035A00060387105A8F561157105A1F1862F0895A0
:1035B00081FF09C06091070185E0689FB001112477
:1035C00075956795EDCF6091070182FD0AC08091E6
:1035D00032028823D1F0909106016091070189178A
:1035E00028F085E0689FB0011124DACF869FB001F2
:1035F000112485E0869F9001879F300D1124692F4B
:1036000070E0C9010E94BC24CBCF65E070E0CECF52
:103610008FE7089581E008958091330280FF0CC008
:103620006091030170E075956795759567956115D3
:10363000710549F1862F089581FF06C0609103014D
:1036400070E075956795F3CF6091030182FD0BC023
:10365000909131029923A1F06091020180910301C0
:10366000961738F0682F70E06038710500F38FE727
:103670000895899FC001112470E00E94BC24F4CFFA
:1036800061E070E0D7CF81E00895803F31F40E947F
:10369000C21A8195809337020895813F19F40E94E0
:1036A000C21AF8CF823F31F40E94C21A81958093EA
:1036B00036020895833F19F40E94C21AF8CF893F59
:1036C00029F40E940C1B8093380208958A3F21F44C
:1036D0000E940C1B8195F7CF8B3F31F40E940C1B8D
:1036E00081958093390208958C3F19F40E940C1B38
:1036F000F8CF843F31F480913502816080933502A8
:103700000895853F21F4809135028260F7CF863F8E
:1037100021F4809135028460F1CF873F21F48091BC
:1037200035028860EBCF883F21F4809135028061BB
:10373000E5CF8D3F31F48091330281608093330275
:1037400008958E3F21F4809133028260F7CF8F3F3E
:10375000B9F7809133028460F1CF90913602803FB7
:1037600059F48091370287FF0DC0109237029111F2
:103770000BC01092320208C0813F81F48091370261
:1037800018169CF3992381F08091380290913902A8
:10379000892B09F064C0109231020895823F49F4E8
:1037A00097FFF0CF10923602809137028111ECCF53
:1037B000E0CF833F19F41916ACF3E4CF209138021F
:1037C000893F29F41216F4F610923802DBCF8A3FB3
:1037D00019F427FFD7CFF8CF209139028B3F29F476
:1037E00027FFD0CF10923902CDCF8C3F19F412169B
:1037F000CCF3C8CF843F31F4809135028E7F809323
:103800003502C0CF853F21F4809135028D7FF7CFFF
:10381000863F21F4809135028B7FF1CF873F21F4E1
:1038200080913502877FEBCF883F21F4809135026C
:103830008F7EE5CF8D3F31F4809133028E7F809370
:103840003302A0CF8E3F21F4809133028D7FF7CFDA
:103850008F3F09F097CF809133028B7FF0CF08958F
:103860000E941B1A9C019091360280913702982B7E
:1038700021F03093300220932F02909138028091F2
:103880003902982B21F030932E0220932D0284E3ED
:1038900092E00C943D0EEF92FF920F931F93CF9303
:1038A000DF9300D000D000D0CDB7DEB786E0E4E3F0
:1038B000F2E0DE01119601900D928A95E1F7E09019
:1038C0003602F090370200913802109139021092BE
:1038D00036021092370210923802109239028E2D61
:1038E0008F2991F080912F02909130020E94331A1B
:1038F000AC0190913202992309F43FC080910801F4
:103900008417150608F447C0802F812B91F0809111
:103910002D0290912E020E94331AAC019091310237
:10392000992309F477C0809104018417150608F4DF
:103930007FC08091360290913702892B9091380296
:10394000892B90913902892B11F00E94301C86E05E
:10395000FE013196A4E3B2E001900D928A95E1F761
:1039600026960FB6F894DEBF0FBECDBFDF91CF9184
:103970001F910F91FF90EF900895209109018AE027
:10398000289F900111242417350708F0BDCF9F5FB1
:103990009093320202C09F3FD1F7EE2059F00E946F
:1039A000C21A9FEF1E140CF491E0899F802D112400
:1039B00080933602FF2059F00E94C21A9FEF1F1415
:1039C0000CF491E0899F802D11248093370230916F
:1039D0003602332309F498CF20913702222309F4C9
:1039E00093CF45EB3403C0011124992359F09093F0
:1039F000360245EB240390011124332339F0309330
:103A0000370282CF81E080933602F3CF81E080934A
:103A100037027ACF209105018AE0289F9001112476
:103A20002417350708F085CF9F5F9093310202C0BD
:103A30009F3FD1F7002359F00E940C1B9FEF1016F7
:103A40000CF491E0899F802D11248093380211237A
:103A500059F00E940C1B9FEF11160CF491E0899F06
:103A6000802D11248093390230913802332309F4D8
:103A700060CF20913902222309F45BCF45EB340358
:103A8000C0011124992359F09093380245EB240387
:103A900090011124332339F0309339024ACF81E069
:103AA00080933802F3CF81E08093390242CF86E0E1
:103AB000E4E3F2E0DF011D928A95E9F71092320209
:103AC00010923102109233020895809142020895BB
:103AD000CF93DF9300D00F92CDB7DEB790915E0207
:103AE000943011F589837B836A839093E9008FEF8B
:103AF0009091E800815095FD06C095ED9A95F1F7FB
:103B000000008111F5CF8091E80085FF0DC050E0E5
:103B100040E063E070E0CE0101960E94DC1F8091DE
:103B2000E8008E778093E8000F900F900F90DF9160
:103B3000CF910895BC0184E00C94681DBC0183E022
:103B40000C94681D9C0184E08093E9009FEF8091B4
:103B5000E800915085FD06C085ED8A95F1F70000DB
:103B60009111F5CF8091E80085FF0CC050E040E056
:103B700066E070E0C9010E94DC1F8091E8008E774A
:103B80008093E8000895CF93DF93EC0181E0809368
:103B9000E9008FEF9091E800815095FD06C095ED0A
:103BA0009A95F1F700008111F5CF8091E80085FF2B
:103BB00014C050E040E068E070E0CE010E94DC1FDD
:103BC0008091E8008E778093E80088E0FE01AAE308
:103BD000B2E001900D928A95E1F7DF91CF910895BF
:103BE000CF93FC01603221F580915E02843001F5B3
:103BF000C091E900CF702091EC00922F917020FDD0
:103C000090E8C92B82E08093E9008091E80080FF72
:103C10000CC050E040E060E270E0CF010E94DC1F89
:103C20008091E8008E778093E800CF70C093E90020
:103C3000CF91089580915D02811109C00E94BB213E
:103C40000E9418228091E20084608093E20008952F
:103C500010925D020895089508950C94E31942E0CE
:103C600061EC81E00E94372142E261EC84E00E9435
:103C7000372142E261EC82E00E94372142E260ECAF
:103C800083E00C94372180916002833009F461C095
:103C900030F48130D1F1823009F49DC008958A302A
:103CA00009F489C08B3009F46FC0893009F050C025
:103CB00080915F02813209F04BC080916302909144
:103CC0006402009719F0029709F042C08091E80061
:103CD000877F8093E8008091E80082FF35C0909153
:103CE000F3008091F200029729F48091F1008B7F1C
:103CF000813021F48091F100809342028091E800AC
:103D00008B778093E8000C946B2180915F02813A5D
:103D1000F9F48091E800877F8093E8008091630246
:103D200090916402892B61F468E08AE392E070E08C
:103D30000E947A208091E8008B778093E8000895B4
:103D400060E090E080E0F3CF80915E028111C3CF0C
:103D5000089580915F02813AD9F780916302909132
:103D60006402892BA9F78091E800877F8093E8009F
:103D70008091E80080FFFCCF809114018093F100D6
:103D80008091E8008E77BDCF80915F02813201F78C
:103D90008091630290916402892BD1F68091E800B2
:103DA000877F8093E8000E946B218091610280935D
:103DB00014010C94E91280915F02813249F68091DE
:103DC000E800877F8093E8000E946B218091620267
:103DD00080934302089580915F02813A09F0B8CF41
:103DE0008091E800877F8093E8008091E80080FF61
:103DF000FCCF80914302C2CFCDB7DEB7A0970FB6FC
:103E0000F894DEBF0FBECDBF84B7877F84BF0FB6E7
:103E1000F894A8958091600088618093600010926A
:103E200060000FBE80E890E00FB6F89480936100C8
:103E3000909361000FBE0E94850E0E94BB210E94DC
:103E400018228091E20084608093E20078940E94BE
:103E5000A1240E94910E8AE091E00E94210E13E0BD
:103E600080915E02853059F00E949D0E80915E0225
:103E7000843091F00E948F0E0E94900EF1CF0E942C
:103E80009A1980915C02882359F30E94CB198823E8
:103E900039F30E94C61FE4CF1093E9008091E80037
:103EA00082FFE8CF8091E80090E085FF09C050E0F4
:103EB00040E060E270E0CE0101960E942B2091E08C
:103EC0008091E8008B778093E800992399F260E273
:103ED000CE0101960E94C009CDCF0C946F1F292FEF
:103EE00033272330310521F168F42130310509F4FD
:103EF00043C02230310509F444C090E080E030E056
:103F000020E026C02132310551F122323105A9F7D6
:103F10006330710590F7FB01EE0FFF1FE556FE4F72
:103F20002081318168567E4FFB01808190E010C076
:103F300099278130910581F0009729F00297E9F6E1
:103F4000ECEAF4E002C0ECECF4E0849190E09F0134
:103F5000FA01318320830895ECEBF4E0F6CF63306F
:103F6000710558F6660F771FFB01EF55FE4F208154
:103F7000318189E090E0ECCF82E190E02BE235E006
:103F8000E7CF8BE590E020ED34E0E2CF80E189BD22
:103F900082E189BD09B400FEFDCF8091D8008F7DFC
:103FA0008093D8008091E00082608093E00080914F
:103FB000E00081FDFCCF0895AF92BF92CF92DF92D7
:103FC000FF920F931F93CF93DF936C01EB018A0154
:103FD0000E948A21F82E811123C00115110539F0A4
:103FE000F80180819181C81BD90BC80ED91EB12C54
:103FF000A12C2097A9F08091E80085FD22C0809136
:10400000E8008E778093E80001151105A1F0F80112
:1040100080819181A80EB91EB182A08285E0F82E20
:104020008F2DDF91CF911F910F91FF90DF90CF9057
:10403000BF90AF9008950E948A218823D1F2F82E74
:10404000EFCFF60181916F018093F1002197FFEF8F
:10405000AF1ABF0ACECFAF92BF92CF92DF92FF923C
:104060000F931F93CF93DF936C01EB018A010E94A2
:104070008A21F82E811123C00115110539F0F801AC
:1040800080819181C81BD90BC80ED91EB12CA12CDF
:104090002097A9F08091E80085FD22C08091E8007A
:1040A0008B778093E80001151105A1F0F80180815C
:1040B0009181A80EB91EB182A08285E0F82E8F2DC5
:1040C000DF91CF911F910F91FF90DF90CF90BF9024
:1040D000AF9008950E948A218823D1F2F82EEFCF65
:1040E0008091F100F60181936F012197FFEFAF1AE4
:1040F000BF0ACECFFC0180916502909166028617BF
:104100009707A0F06115710529F49091E8009E775A
:104110009093E80090E06115710551F4911108C089
:104120008091E80082FF34C080E00895BC01F2CFA6
:1041300080915E028823C1F18530C1F18091E80051
:1041400083FD30C08091E80082FDEACF8091E800D5
:1041500080FFE1CF8091F3002091F200382F6115AC
:10416000710519F02830310558F091E028303105FB
:1041700009F090E02091E8002E772093E800CBCF63
:1041800081918093F100615071092F5F3F4FE7CF1C
:1041900080915E02882341F0853041F08091E800F3
:1041A00083FFBECF81E0089582E0089583E0089503
:1041B000FC01809165029091660286179707A0F036
:1041C0006115710529F48091E8008E778093E800ED
:1041D00090E06115710551F4911108C08091E800DB
:1041E00082FF35C080E00895BC01F2CF80915E026D
:1041F0008823C9F18530C9F18091E80083FD31C081
:104200008091E80082FDEACF8091E80080FFE1CF55
:104210008091F3002091F200382F6115710519F09B
:104220002830310558F091E02830310509F090E050
:104230008091E8008E778093E800CBCF84918093C3
:10424000F1003196615071092F5F3F4FE6CF8091A9
:104250005E02882341F0853041F08091E80083FFC1
:10426000BDCF81E0089582E0089583E00895982FFE
:10427000973028F08F708093E90081E00895909343
:10428000E900242F762F50E0981731F07091EC0060
:104290002091ED005091F00021FD02C09F5FE8CF1A
:1042A0003091EB003E7F3093EB003091ED003D7F8D
:1042B0003093ED003091EB0031603093EB00709360
:1042C000EC002093ED005093F0002091EE0027FDCC
:1042D000E5CF80E0089580915F0287FF13C0809151
:1042E000E80082FF06C08091E8008B778093E800A9
:1042F00004C080915E028111F2CF089580915E0228
:104300008823D9F38091E80080FFF8CF8091E800FE
:104310008E77ECCF2091E4003091E50095E6A9017D
:104320002091EC00822F817020FF06C08091E80070
:1043300080FF06C080E008952091E80022FD1AC0A9
:1043400080915E02882389F0853089F08091EB00AE
:1043500085FD0FC02091E4003091E500421753071E
:10436000F9F29150E1F684E0089582E0089583E047
:10437000089581E008950E9429220E943122E0EEF2
:10438000F0E0808181608083E8EDF0E080818F77CC
:10439000808319BCA7EDB0E08C918E7F8C938081D7
:1043A0008F7E808310925D0208950F931F93CF93A9
:1043B000DF930E9429220E943122C8EDD0E088813B
:1043C0008F77888388818068888388818F7D8883C0
:1043D00019BC10925E0210925A0210925C02109266
:1043E0005B0200EE10E0F80180818B7F8083888182
:1043F0008160888342E060E080E00E943721E1EE46
:10440000F0E080818E7F8083E2EEF0E08081816049
:104410008083808188608083F80180818E7F8083A3
:10442000888180618883DF91CF911F910F910895DA
:10443000E8EDF0E080818F7E8083E7EDF0E0808121
:104440008160808384E082BF81E080935D020C9470
:10445000D521E8EDF0E080818E7F80831092E2002C
:1044600008951092DA001092E10008951F920F92C1
:104470000FB60F9211242F933F934F935F936F9337
:104480007F938F939F93AF93BF93EF93FF9380910D
:10449000E10082FF0BC08091E20082FF07C08091A3
:1044A000E1008B7F8093E1000E94A0248091DA00DC
:1044B00080FF19C08091D80080FF15C08091DA007C
:1044C0008E7F8093DA008091D90080FF96C080E1D2
:1044D00089BD82E189BD09B400FEFDCF81E08093F2
:1044E0005E020E941A1E8091E10080FF19C0809137
:1044F000E20080FF15C08091E2008E7F8093E20091
:104500008091E20080618093E2008091D800806217
:104510008093D80019BC85E080935E020E942C1E17
:104520008091E10084FF2BC08091E20084FF27C0CE
:1045300080E189BD82E189BD89B5982F917080FFA6
:10454000FBCF8091D8008F7D8093D8008091E100CF
:104550008F7E8093E1008091E2008F7E8093E20065
:104560008091E20081608093E20080915A0288236A
:1045700009F449C084E080935E020E942D1E809160
:10458000E10083FF29C08091E20083FF25C0809174
:10459000E100877F8093E10082E080935E021092C9
:1045A0005A028091E1008E7F8093E1008091E200C9
:1045B0008E7F8093E2008091E20080618093E20030
:1045C00042E060E080E00E9437218091F000886046
:1045D0008093F0000E942B1EFF91EF91BF91AF914D
:1045E0009F918F917F916F915F914F913F912F910B
:1045F0000F900FBE0F901F90189519BC10925E027D
:104600000E94281E70CF8091E30087FD93E0909375
:104610005E02B3CF1F920F920FB60F9211242F9309
:104620003F934F935F936F937F938F939F93AF933A
:10463000BF93CF93DF93EF93FF93D091E900DF70A7
:104640008091EC00C82FC17080FDC0E81092E90095
:104650008091F000877F8093F00078940E944E2331
:104660001092E9008091F00088608093F000CD2BDB
:10467000CF70C093E900FF91EF91DF91CF91BF918F
:10468000AF919F918F917F916F915F914F913F91EA
:104690002F910F900FBE0F901F9018951F93CF93DF
:1046A000DF93CDB7DEB7AA970FB6F894DEBF0FBE83
:1046B000CDBF8FE592E02091F100FC012193CF0165
:1046C000F2E087369F07B9F70E94431E8091E80009
:1046D00083FF1EC180915F02909160029A3008F0C2
:1046E00017C1E92FF0E0EE59FA4D0C94D024803830
:1046F00099F0823809F00CC1809163028F70873085
:1047000008F006C18093E9008091EB0085FB8827C3
:1047100080F91092E90006C080915B0290915C02E2
:10472000911182609091E800977F9093E8008093C8
:10473000F1001092F1008091E8008E77E5C08823A7
:1047400009F4D3C0823009F0E3C080916102811185
:10475000D6C0809163028F702FEF280F263008F0AB
:10476000D7C08093E9002091EB0020FFC8C09330B0
:1047700031F48091EB0080628093EB00C0C0909197
:10478000EB0090619093EB0021E030E001C0220F3C
:104790008A95EAF72093EA001092EA008091EB00F4
:1047A0008860EACF8111B4C0109161021F778091B7
:1047B000E3008078812B8093E3008091E800877F7D
:1047C0008093E8000E946B218091E80080FFFCCF7D
:1047D0008091E30080688093E30082E0111183E020
:1047E00080935E0295C08058823008F091C080911D
:1047F0006102909162028C3D23E09207A1F583E073
:104800008A838AE289834FB7F894DE01139620E009
:104810003EE051E2E32FF0E050935700E49120FF97
:1048200003C0E295EF703F5FEF708E2F90E0EA30AB
:10483000C0F0C7968D939D932F5F243159F74FBFDA
:104840008091E800877F8093E8006AE270E0CE0103
:1048500001960E947A208091E8008B778093E8008F
:1048600057C0C096E7CF6091630270916402AE01B9
:104870004F5F5F4F0E946D1FBC01892B09F448C038
:104880009091E800977F9093E80089819A810E9437
:10489000D820E1CF8038E1F58091E800877F8093D0
:1048A000E80080915A028093F10045CF811130C019
:1048B00090916102923060F58091E800877F80934B
:1048C000E80090935A020E946B2180915A0288233B
:1048D00011F084E005C08091E30087FDFACF81E00C
:1048E00080935E020E942F1E13C08091610281306E
:1048F00079F481E0933009F080E080935C021092BB
:10490000E9008091E800877F8093E8000E946B2196
:104910008091E80083FF0AC08091E800877F809340
:10492000E8008091EB0080628093EB00AA960FB6BE
:10493000F894DEBF0FBECDBFDF91CF911F910895D8
:104940000895CF9380915E028823A1F0C091E90081
:10495000CF709091EC00892F817090FD80E8C82B7A
:104960001092E9008091E80083FD0E944E23CF70F1
:10497000C093E900CF91089597FB072E16F4009499
:1049800007D077FD09D00E94DD2407FC05D03EF456
:10499000909581959F4F0895709561957F4F0895EB
:1049A000EE0FFF1F0590F491E02D099469279627DB
:1049B00069277827872778270895AA1BBB1B51E111
:1049C00007C0AA1FBB1FA617B70710F0A61BB70B7F
:1049D000881F991F5A95A9F780959095BC01CD0124
:1049E0000895F999FECF92BD81BDF89A992780B5B7
:1049F0000895A8E1B0E042E050E00C942525262F70
:104A0000F999FECF92BD81BDF89A019700B40216C4
:104A100039F01FBA20BD0FB6F894FA9AF99A0FBE72
:104A200008950396272F0E9400250E94FF24252F1A
:104A30000E940025242F0C9400250196272F0E9408
:104A400000250C94FF24DC01CB01FC01F999FECF79
:104A500006C0F2BDE1BDF89A319600B40D92415006
:104A60005040B8F70895F894FFCFD209DF09060A3D
:104A7000120A1D0A280A2B0A2B0A2B0A740A770A23
:104A80002E0A320A3A0A470A540A570A5A0A670A89
:104A9000C210C2101A111A116C118811EF10EF1008
:104AA00093111F122E122E12F812F8120113011375
:104AB0000313011301130113F812F8120813011361
:104AC0000113081377239F2388249F238824D2234C
:084AD000F32388244A24562434
:104AD80020022808641E140A321E651DC31DA21D6B
:104AE8009E1D9A1D01E200E900EA00B500B600B774
:104AF80000CD008301CC008A019201940121022398
:104B08000224022502260227022A02B300B4006FFB
:104B18000070008182833534C6976694909192F72D
:104B2800F6F5F400FF0100010000FFFF000001009E
:104B380001FF0033313632E200E900EA00B500B681
:104B480000B700CD008301CC008A019201940121B5
:104B580002230224022502260227022A02B300B4F5
:104B6800006F007000818283402281E0053D055F6F
:084B780005E204FB041B05002B
:00000001FF
